{
  "contractName": "WithdrawerMaker",
  "abi": [
    {
      "inputs": [
        {
          "internalType": "address payable",
          "name": "recipient",
          "type": "address"
        }
      ],
      "payable": false,
      "stateMutability": "nonpayable",
      "type": "constructor"
    },
    {
      "anonymous": false,
      "inputs": [
        {
          "indexed": true,
          "internalType": "address",
          "name": "previousOwner",
          "type": "address"
        },
        {
          "indexed": true,
          "internalType": "address",
          "name": "newOwner",
          "type": "address"
        }
      ],
      "name": "OwnershipTransferred",
      "type": "event"
    },
    {
      "constant": true,
      "inputs": [],
      "name": "isOwner",
      "outputs": [
        {
          "internalType": "bool",
          "name": "",
          "type": "bool"
        }
      ],
      "payable": false,
      "stateMutability": "view",
      "type": "function"
    },
    {
      "constant": true,
      "inputs": [],
      "name": "nonce",
      "outputs": [
        {
          "internalType": "uint256",
          "name": "",
          "type": "uint256"
        }
      ],
      "payable": false,
      "stateMutability": "view",
      "type": "function"
    },
    {
      "constant": true,
      "inputs": [],
      "name": "owner",
      "outputs": [
        {
          "internalType": "address",
          "name": "",
          "type": "address"
        }
      ],
      "payable": false,
      "stateMutability": "view",
      "type": "function"
    },
    {
      "constant": false,
      "inputs": [],
      "name": "renounceOwnership",
      "outputs": [],
      "payable": false,
      "stateMutability": "nonpayable",
      "type": "function"
    },
    {
      "constant": false,
      "inputs": [
        {
          "internalType": "address",
          "name": "newOwner",
          "type": "address"
        }
      ],
      "name": "transferOwnership",
      "outputs": [],
      "payable": false,
      "stateMutability": "nonpayable",
      "type": "function"
    },
    {
      "constant": false,
      "inputs": [
        {
          "internalType": "address[]",
          "name": "tokenAddresses",
          "type": "address[]"
        }
      ],
      "name": "deploy",
      "outputs": [
        {
          "internalType": "address",
          "name": "withdrawerInstance",
          "type": "address"
        }
      ],
      "payable": false,
      "stateMutability": "nonpayable",
      "type": "function"
    },
    {
      "constant": false,
      "inputs": [
        {
          "internalType": "uint256",
          "name": "order",
          "type": "uint256"
        }
      ],
      "name": "consumeWithOrder",
      "outputs": [],
      "payable": false,
      "stateMutability": "nonpayable",
      "type": "function"
    },
    {
      "constant": true,
      "inputs": [
        {
          "internalType": "address[]",
          "name": "tokenAddresses",
          "type": "address[]"
        },
        {
          "internalType": "uint256",
          "name": "order",
          "type": "uint256"
        }
      ],
      "name": "calculateAddress",
      "outputs": [
        {
          "internalType": "address",
          "name": "target",
          "type": "address"
        }
      ],
      "payable": false,
      "stateMutability": "view",
      "type": "function"
    }
  ],
  "bytecode": "0x608060405234801561001057600080fd5b5060405161156a38038061156a8339818101604052602081101561003357600080fd5b5051600080546001600160a01b03191633178082556040516001600160a01b039190911691907f8be0079c531659141344cd1fd0a4f28419497f9722a3daafe3b4186f6b6457e0908290a3600280546001600160a01b0319166001600160a01b03929092169190911790556114bd806100ad6000396000f3fe60806040523480156200001157600080fd5b5060043610620000945760003560e01c80638f32d59b11620000635780638f32d59b14620001945780639dbffbd814620001b2578063affed0e0146200025d578063f2fde38b14620002795762000094565b80630570b1fa1462000099578063715018a6146200015e57806374507fba146200016a5780638da5cb5b146200018a575b600080fd5b6200014260048036036020811015620000b157600080fd5b810190602081018135640100000000811115620000cd57600080fd5b820183602082011115620000e057600080fd5b803590602001918460208302840111640100000000831117156200010357600080fd5b919080806020026020016040519081016040528093929190818152602001838360200280828437600092019190915250929550620002a2945050505050565b604080516001600160a01b039092168252519081900360200190f35b62000168620004e1565b005b62000168600480360360208110156200018257600080fd5b503562000594565b62000142620006bf565b6200019e620006ce565b604080519115158252519081900360200190f35b6200014260048036036040811015620001ca57600080fd5b810190602081018135640100000000811115620001e657600080fd5b820183602082011115620001f957600080fd5b803590602001918460208302840111640100000000831117156200021c57600080fd5b9190808060200260200160405190810160405280939291908181526020018383602002808284376000920191909152509295505091359250620006df915050565b6200026762000893565b60408051918252519081900360200190f35b62000168600480360360208110156200029157600080fd5b50356001600160a01b031662000899565b6000620002ae620006ce565b62000300576040805162461bcd60e51b815260206004820181905260248201527f4f776e61626c653a2063616c6c6572206973206e6f7420746865206f776e6572604482015290519081900360640190fd5b606060405180602001620003149062000a14565b601f1982820381018352601f9091011660408181526002546001600160a01b0316818301819052602083810192835287516060850152875188949293928392608090910191868201910280838360005b838110156200037e57818101518382015260200162000364565b5050505090500193505050506040516020818303038152906040526040516020018083805190602001908083835b60208310620003cd5780518252601f199092019160209182019101620003ac565b51815160209384036101000a600019018019909216911617905285519190930192850191508083835b60208310620004175780518252601f199092019160209182019101620003f6565b6001836020036101000a03801982511681845116808217855250505050505090500192505050604051602081830303815290604052905080602001815160015480828434f59450846200046e573d6000803e3d6000fd5b505060038054600180820183556000929092527fc2575a0e9e593c00f959f8c92f12db2869c3395a3b0502d05e2516446f71f85b01805473ffffffffffffffffffffffffffffffffffffffff19166001600160a01b0386161790558054620004d892509062000903565b60015550919050565b620004eb620006ce565b6200053d576040805162461bcd60e51b815260206004820181905260248201527f4f776e61626c653a2063616c6c6572206973206e6f7420746865206f776e6572604482015290519081900360640190fd5b600080546040516001600160a01b03909116907f8be0079c531659141344cd1fd0a4f28419497f9722a3daafe3b4186f6b6457e0908390a36000805473ffffffffffffffffffffffffffffffffffffffff19169055565b6200059e620006ce565b620005f0576040805162461bcd60e51b815260206004820181905260248201527f4f776e61626c653a2063616c6c6572206973206e6f7420746865206f776e6572604482015290519081900360640190fd5b600354811015620006335760405162461bcd60e51b815260040180806020018281038252602a8152602001806200145f602a913960400191505060405180910390fd5b600381815481106200064157fe5b6000918252602082200154604080517f1dedc6f700000000000000000000000000000000000000000000000000000000815290516001600160a01b0390921692631dedc6f79260048084019382900301818387803b158015620006a357600080fd5b505af1158015620006b8573d6000803e3d6000fd5b5050505050565b6000546001600160a01b031690565b6000546001600160a01b0316331490565b6000606060405180602001620006f59062000a14565b601f1982820381018352601f9091011660408181526002546001600160a01b0316818301819052602083810192835288516060850152885189949293928392608090910191868201910280838360005b838110156200075f57818101518382015260200162000745565b5050505090500193505050506040516020818303038152906040526040516020018083805190602001908083835b60208310620007ae5780518252601f1990920191602091820191016200078d565b51815160209384036101000a600019018019909216911617905285519190930192850191508083835b60208310620007f85780518252601f199092019160209182019101620007d7565b51815160209384036101000a60001901801990921691161790526040805192909401828103601f190183528085528251928201929092207fff00000000000000000000000000000000000000000000000000000000000000838301523060601b6021840152603583019a909a5260558083019a909a528351808303909a018a5260759091019092525086519601959095209695505050505050565b60015481565b620008a3620006ce565b620008f5576040805162461bcd60e51b815260206004820181905260248201527f4f776e61626c653a2063616c6c6572206973206e6f7420746865206f776e6572604482015290519081900360640190fd5b620009008162000965565b50565b6000828201838110156200095e576040805162461bcd60e51b815260206004820152601b60248201527f536166654d6174683a206164646974696f6e206f766572666c6f770000000000604482015290519081900360640190fd5b9392505050565b6001600160a01b038116620009ac5760405162461bcd60e51b8152600401808060200182810382526026815260200180620014396026913960400191505060405180910390fd5b600080546040516001600160a01b03808516939216917f8be0079c531659141344cd1fd0a4f28419497f9722a3daafe3b4186f6b6457e091a36000805473ffffffffffffffffffffffffffffffffffffffff19166001600160a01b0392909216919091179055565b610a168062000a238339019056fe608060405234801561001057600080fd5b50604051610a16380380610a168339818101604052604081101561003357600080fd5b810190808051604051939291908464010000000082111561005357600080fd5b90830190602082018581111561006857600080fd5b825186602082028301116401000000008211171561008557600080fd5b82525081516020918201928201910280838360005b838110156100b257818101518382015260200161009a565b5050505091909101604081905260209290920151600080546001600160a01b03191633178082559195506001600160a01b03919091169350917f8be0079c531659141344cd1fd0a4f28419497f9722a3daafe3b4186f6b6457e091508290a3815161012490600290602085019061037f565b50600180546001600160a01b0319166001600160a01b03831617905561014861014f565b505061040b565b60005b6002548110156103425760006002828154811061016b57fe5b60009182526020918290200154604080516370a0823160e01b815232600482015290516001600160a01b03909216926370a0823192602480840193829003018186803b1580156101ba57600080fd5b505afa1580156101ce573d6000803e3d6000fd5b505050506040513d60208110156101e457600080fd5b505160028054919250600091849081106101fa57fe5b6000918252602091829020015460408051636eb1769f60e11b815232600482015230602482015290516001600160a01b039092169263dd62ed3e92604480840193829003018186803b15801561024f57600080fd5b505afa158015610263573d6000803e3d6000fd5b505050506040513d602081101561027957600080fd5b5051905060008282101561028d578161028f565b825b90506002848154811061029e57fe5b6000918252602080832090910154600154604080516323b872dd60e01b81523260048201526001600160a01b03928316602482015260448101879052905191909216936323b872dd93606480850194919392918390030190829087803b15801561030757600080fd5b505af115801561031b573d6000803e3d6000fd5b505050506040513d602081101561033157600080fd5b505060019093019250610152915050565b506001546040516001600160a01b03909116904780156108fc02916000818181858888f1935050505015801561037c573d6000803e3d6000fd5b50565b8280548282559060005260206000209081019282156103d4579160200282015b828111156103d457825182546001600160a01b0319166001600160a01b0390911617825560209092019160019091019061039f565b506103e09291506103e4565b5090565b61040891905b808211156103e05780546001600160a01b03191681556001016103ea565b90565b6105fc8061041a6000396000f3fe608060405234801561001057600080fd5b50600436106100675760003560e01c80638da5cb5b116100505780638da5cb5b1461007e5780638f32d59b146100a2578063f2fde38b146100be57610067565b80631dedc6f71461006c578063715018a614610076575b600080fd5b6100746100e4565b005b610074610147565b6100866101f7565b604080516001600160a01b039092168252519081900360200190f35b6100aa610206565b604080519115158252519081900360200190f35b610074600480360360208110156100d457600080fd5b50356001600160a01b0316610217565b6100ec610206565b61013d576040805162461bcd60e51b815260206004820181905260248201527f4f776e61626c653a2063616c6c6572206973206e6f7420746865206f776e6572604482015290519081900360640190fd5b61014561027c565b565b61014f610206565b6101a0576040805162461bcd60e51b815260206004820181905260248201527f4f776e61626c653a2063616c6c6572206973206e6f7420746865206f776e6572604482015290519081900360640190fd5b600080546040516001600160a01b03909116907f8be0079c531659141344cd1fd0a4f28419497f9722a3daafe3b4186f6b6457e0908390a36000805473ffffffffffffffffffffffffffffffffffffffff19169055565b6000546001600160a01b031690565b6000546001600160a01b0316331490565b61021f610206565b610270576040805162461bcd60e51b815260206004820181905260248201527f4f776e61626c653a2063616c6c6572206973206e6f7420746865206f776e6572604482015290519081900360640190fd5b610279816104f4565b50565b60005b6002548110156104ba5760006002828154811061029857fe5b60009182526020918290200154604080517f70a0823100000000000000000000000000000000000000000000000000000000815232600482015290516001600160a01b03909216926370a0823192602480840193829003018186803b15801561030057600080fd5b505afa158015610314573d6000803e3d6000fd5b505050506040513d602081101561032a57600080fd5b5051600280549192506000918490811061034057fe5b60009182526020918290200154604080517fdd62ed3e00000000000000000000000000000000000000000000000000000000815232600482015230602482015290516001600160a01b039092169263dd62ed3e92604480840193829003018186803b1580156103ae57600080fd5b505afa1580156103c2573d6000803e3d6000fd5b505050506040513d60208110156103d857600080fd5b505190506000828210156103ec57816103ee565b825b9050600284815481106103fd57fe5b6000918252602080832090910154600154604080517f23b872dd0000000000000000000000000000000000000000000000000000000081523260048201526001600160a01b03928316602482015260448101879052905191909216936323b872dd93606480850194919392918390030190829087803b15801561047f57600080fd5b505af1158015610493573d6000803e3d6000fd5b505050506040513d60208110156104a957600080fd5b50506001909301925061027f915050565b506001546040516001600160a01b03909116904780156108fc02916000818181858888f19350505050158015610279573d6000803e3d6000fd5b6001600160a01b0381166105395760405162461bcd60e51b81526004018080602001828103825260268152602001806105a26026913960400191505060405180910390fd5b600080546040516001600160a01b03808516939216917f8be0079c531659141344cd1fd0a4f28419497f9722a3daafe3b4186f6b6457e091a36000805473ffffffffffffffffffffffffffffffffffffffff19166001600160a01b039290921691909117905556fe4f776e61626c653a206e6577206f776e657220697320746865207a65726f2061646472657373a265627a7a72315820ded7380f643a3f8c9dcb55128d4705c9a3226baf10bdec76eee827528856eb0c64736f6c634300051000324f776e61626c653a206e6577206f776e657220697320746865207a65726f2061646472657373576974686472617765724d616b65722f49732d4e6f742d4465706c6f7965642d57697468647261776572a265627a7a72315820d8c7c9b1c5f6cd2cb5ddc1343d5f9deb0e22a4353b8c0a92a39ab8a9c14b1cda64736f6c63430005100032",
  "source": "pragma solidity 0.5.16;\n\nimport \"./Library/Ownable.sol\";\nimport \"./Library/SafeMath.sol\";\nimport \"./Library/IWithdrawer.sol\";\nimport \"./Withdrawer.sol\";\n\n\ncontract WithdrawerMaker is Ownable {\n    using SafeMath for uint256;\n\n    uint256 public nonce;\n    address payable private _recipient;\n    IWithdrawer[] private deployed;\n\n    constructor(address payable recipient) public {\n        _recipient = recipient;\n    }\n\n    function deploy(address[] memory tokenAddresses)\n        public\n        onlyOwner\n        returns (address withdrawerInstance)\n    {\n        bytes memory initCode = abi.encodePacked(\n            type(Withdrawer).creationCode,\n            abi.encode(tokenAddresses, _recipient)\n        );\n\n        assembly {\n            let encoded_data := add(0x20, initCode)\n            let encoded_size := mload(initCode)\n            let _nonce := sload(nonce_slot)\n            withdrawerInstance := create2(\n                callvalue,\n                encoded_data,\n                encoded_size,\n                _nonce\n            )\n\n            if iszero(withdrawerInstance) {\n                returndatacopy(0, 0, returndatasize)\n                revert(0, returndatasize)\n            }\n        }\n\n        deployed.push(IWithdrawer(withdrawerInstance));\n        nonce = nonce.add(1);\n    }\n\n    function consumeWithOrder(uint256 order) public onlyOwner {\n        require(\n            deployed.length <= order,\n            \"WithdrawerMaker/Is-Not-Deployed-Withdrawer\"\n        );\n        deployed[order].consume();\n    }\n\n    function calculateAddress(address[] memory tokenAddresses, uint256 order)\n        public\n        view\n        returns (address target)\n    {\n        bytes memory initCode = abi.encodePacked(\n            type(Withdrawer).creationCode,\n            abi.encode(tokenAddresses, _recipient)\n        );\n\n        bytes32 initCodeHash = keccak256(initCode);\n\n        target = address( // derive the target deployment address.\n            uint160( // downcast to match the address type.\n                uint256( // cast to uint to truncate upper digits.\n                    keccak256( // compute CREATE2 hash using 4 inputs.\n                        abi.encodePacked( // pack all inputs to the hash together.\n                            bytes1(0xff), // pass in the control character.\n                            address(this), // pass in the address of this contract.\n                            order, // pass in the salt from above.\n                            initCodeHash // pass in hash of contract creation code.\n                        )\n                    )\n                )\n            )\n        );\n    }\n}\n",
  "sourcePath": "/workspaces/dsrvFrontRunningERC20/contracts/WithdrawerMaker.sol",
  "compiler": {
    "name": "solc",
    "version": "0.5.16+commit.9c3226ce.Emscripten.clang"
  },
  "schemaVersion": "3.0.23",
  "updatedAt": "2020-03-13T05:22:00.470Z",
  "devdoc": {
    "methods": {
      "isOwner()": {
        "details": "Returns true if the caller is the current owner."
      },
      "owner()": {
        "details": "Returns the address of the current owner."
      },
      "renounceOwnership()": {
        "details": "Leaves the contract without owner. It will not be possible to call `onlyOwner` functions anymore. Can only be called by the current owner.     * NOTE: Renouncing ownership will leave the contract without an owner, thereby removing any functionality that is only available to the owner."
      },
      "transferOwnership(address)": {
        "details": "Transfers ownership of the contract to a new account (`newOwner`). Can only be called by the current owner."
      }
    }
  },
  "userdoc": {
    "methods": {}
  }
}