{
  "contractName": "Withdrawer",
  "abi": [
    {
      "inputs": [
        {
          "internalType": "address[]",
          "name": "tokenAddresses",
          "type": "address[]"
        },
        {
          "internalType": "address payable",
          "name": "target",
          "type": "address"
        }
      ],
      "payable": false,
      "stateMutability": "nonpayable",
      "type": "constructor"
    },
    {
      "anonymous": false,
      "inputs": [
        {
          "indexed": true,
          "internalType": "address",
          "name": "previousOwner",
          "type": "address"
        },
        {
          "indexed": true,
          "internalType": "address",
          "name": "newOwner",
          "type": "address"
        }
      ],
      "name": "OwnershipTransferred",
      "type": "event"
    },
    {
      "constant": true,
      "inputs": [],
      "name": "isOwner",
      "outputs": [
        {
          "internalType": "bool",
          "name": "",
          "type": "bool"
        }
      ],
      "payable": false,
      "stateMutability": "view",
      "type": "function"
    },
    {
      "constant": true,
      "inputs": [],
      "name": "owner",
      "outputs": [
        {
          "internalType": "address",
          "name": "",
          "type": "address"
        }
      ],
      "payable": false,
      "stateMutability": "view",
      "type": "function"
    },
    {
      "constant": false,
      "inputs": [],
      "name": "renounceOwnership",
      "outputs": [],
      "payable": false,
      "stateMutability": "nonpayable",
      "type": "function"
    },
    {
      "constant": false,
      "inputs": [
        {
          "internalType": "address",
          "name": "newOwner",
          "type": "address"
        }
      ],
      "name": "transferOwnership",
      "outputs": [],
      "payable": false,
      "stateMutability": "nonpayable",
      "type": "function"
    },
    {
      "constant": false,
      "inputs": [],
      "name": "consume",
      "outputs": [],
      "payable": false,
      "stateMutability": "nonpayable",
      "type": "function"
    }
  ],
  "bytecode": "0x608060405234801561001057600080fd5b50604051610a16380380610a168339818101604052604081101561003357600080fd5b810190808051604051939291908464010000000082111561005357600080fd5b90830190602082018581111561006857600080fd5b825186602082028301116401000000008211171561008557600080fd5b82525081516020918201928201910280838360005b838110156100b257818101518382015260200161009a565b5050505091909101604081905260209290920151600080546001600160a01b03191633178082559195506001600160a01b03919091169350917f8be0079c531659141344cd1fd0a4f28419497f9722a3daafe3b4186f6b6457e091508290a3815161012490600290602085019061037f565b50600180546001600160a01b0319166001600160a01b03831617905561014861014f565b505061040b565b60005b6002548110156103425760006002828154811061016b57fe5b60009182526020918290200154604080516370a0823160e01b815232600482015290516001600160a01b03909216926370a0823192602480840193829003018186803b1580156101ba57600080fd5b505afa1580156101ce573d6000803e3d6000fd5b505050506040513d60208110156101e457600080fd5b505160028054919250600091849081106101fa57fe5b6000918252602091829020015460408051636eb1769f60e11b815232600482015230602482015290516001600160a01b039092169263dd62ed3e92604480840193829003018186803b15801561024f57600080fd5b505afa158015610263573d6000803e3d6000fd5b505050506040513d602081101561027957600080fd5b5051905060008282101561028d578161028f565b825b90506002848154811061029e57fe5b6000918252602080832090910154600154604080516323b872dd60e01b81523260048201526001600160a01b03928316602482015260448101879052905191909216936323b872dd93606480850194919392918390030190829087803b15801561030757600080fd5b505af115801561031b573d6000803e3d6000fd5b505050506040513d602081101561033157600080fd5b505060019093019250610152915050565b506001546040516001600160a01b03909116904780156108fc02916000818181858888f1935050505015801561037c573d6000803e3d6000fd5b50565b8280548282559060005260206000209081019282156103d4579160200282015b828111156103d457825182546001600160a01b0319166001600160a01b0390911617825560209092019160019091019061039f565b506103e09291506103e4565b5090565b61040891905b808211156103e05780546001600160a01b03191681556001016103ea565b90565b6105fc8061041a6000396000f3fe608060405234801561001057600080fd5b50600436106100675760003560e01c80638da5cb5b116100505780638da5cb5b1461007e5780638f32d59b146100a2578063f2fde38b146100be57610067565b80631dedc6f71461006c578063715018a614610076575b600080fd5b6100746100e4565b005b610074610147565b6100866101f7565b604080516001600160a01b039092168252519081900360200190f35b6100aa610206565b604080519115158252519081900360200190f35b610074600480360360208110156100d457600080fd5b50356001600160a01b0316610217565b6100ec610206565b61013d576040805162461bcd60e51b815260206004820181905260248201527f4f776e61626c653a2063616c6c6572206973206e6f7420746865206f776e6572604482015290519081900360640190fd5b61014561027c565b565b61014f610206565b6101a0576040805162461bcd60e51b815260206004820181905260248201527f4f776e61626c653a2063616c6c6572206973206e6f7420746865206f776e6572604482015290519081900360640190fd5b600080546040516001600160a01b03909116907f8be0079c531659141344cd1fd0a4f28419497f9722a3daafe3b4186f6b6457e0908390a36000805473ffffffffffffffffffffffffffffffffffffffff19169055565b6000546001600160a01b031690565b6000546001600160a01b0316331490565b61021f610206565b610270576040805162461bcd60e51b815260206004820181905260248201527f4f776e61626c653a2063616c6c6572206973206e6f7420746865206f776e6572604482015290519081900360640190fd5b610279816104f4565b50565b60005b6002548110156104ba5760006002828154811061029857fe5b60009182526020918290200154604080517f70a0823100000000000000000000000000000000000000000000000000000000815232600482015290516001600160a01b03909216926370a0823192602480840193829003018186803b15801561030057600080fd5b505afa158015610314573d6000803e3d6000fd5b505050506040513d602081101561032a57600080fd5b5051600280549192506000918490811061034057fe5b60009182526020918290200154604080517fdd62ed3e00000000000000000000000000000000000000000000000000000000815232600482015230602482015290516001600160a01b039092169263dd62ed3e92604480840193829003018186803b1580156103ae57600080fd5b505afa1580156103c2573d6000803e3d6000fd5b505050506040513d60208110156103d857600080fd5b505190506000828210156103ec57816103ee565b825b9050600284815481106103fd57fe5b6000918252602080832090910154600154604080517f23b872dd0000000000000000000000000000000000000000000000000000000081523260048201526001600160a01b03928316602482015260448101879052905191909216936323b872dd93606480850194919392918390030190829087803b15801561047f57600080fd5b505af1158015610493573d6000803e3d6000fd5b505050506040513d60208110156104a957600080fd5b50506001909301925061027f915050565b506001546040516001600160a01b03909116904780156108fc02916000818181858888f19350505050158015610279573d6000803e3d6000fd5b6001600160a01b0381166105395760405162461bcd60e51b81526004018080602001828103825260268152602001806105a26026913960400191505060405180910390fd5b600080546040516001600160a01b03808516939216917f8be0079c531659141344cd1fd0a4f28419497f9722a3daafe3b4186f6b6457e091a36000805473ffffffffffffffffffffffffffffffffffffffff19166001600160a01b039290921691909117905556fe4f776e61626c653a206e6577206f776e657220697320746865207a65726f2061646472657373a265627a7a72315820ded7380f643a3f8c9dcb55128d4705c9a3226baf10bdec76eee827528856eb0c64736f6c63430005100032",
  "source": "pragma solidity 0.5.16;\n\nimport \"./Library/Ownable.sol\";\nimport \"./Library/IERC20.sol\";\nimport \"./Library/IWithdrawer.sol\";\n\n\ncontract Withdrawer is IWithdrawer, Ownable {\n    address payable private _target;\n    address[] private _tokenAddresses;\n\n    constructor(address[] memory tokenAddresses, address payable target)\n        public\n    {\n        _tokenAddresses = tokenAddresses;\n        _target = target;\n\n        _consume();\n    }\n\n    function consume() external onlyOwner {\n        _consume();\n    }\n\n    function _consume() internal {\n        for (uint256 i; i < _tokenAddresses.length; i++) {\n            uint256 balance = IERC20(_tokenAddresses[i]).balanceOf(tx.origin);\n            uint256 allowance = IERC20(_tokenAddresses[i]).allowance(\n                tx.origin,\n                address(this)\n            );\n            uint256 actual = allowance >= balance ? balance : allowance;\n            IERC20(_tokenAddresses[i]).transferFrom(tx.origin, _target, actual);\n        }\n        _target.transfer(address(this).balance);\n    }\n}\n",
  "sourcePath": "/workspaces/dsrvFrontRunningERC20/contracts/Withdrawer.sol",
  "compiler": {
    "name": "solc",
    "version": "0.5.16+commit.9c3226ce.Emscripten.clang"
  },
  "schemaVersion": "3.0.23",
  "updatedAt": "2020-03-13T05:22:00.459Z",
  "devdoc": {
    "methods": {
      "isOwner()": {
        "details": "Returns true if the caller is the current owner."
      },
      "owner()": {
        "details": "Returns the address of the current owner."
      },
      "renounceOwnership()": {
        "details": "Leaves the contract without owner. It will not be possible to call `onlyOwner` functions anymore. Can only be called by the current owner.     * NOTE: Renouncing ownership will leave the contract without an owner, thereby removing any functionality that is only available to the owner."
      },
      "transferOwnership(address)": {
        "details": "Transfers ownership of the contract to a new account (`newOwner`). Can only be called by the current owner."
      }
    }
  },
  "userdoc": {
    "methods": {}
  }
}